:020000020000FC
:100000000FEF0DBF18E01EBF80E88093610084E011
:10001000809361002FE037E24FE134B927B94AB944
:1000200028E130E340E225B938B94BB950E060E04F
:1000300070E0C1E055B968B97BB91C9B0E943400DF
:100040001B9B0E943B00349B0E944200359B0E94F8
:1000500049004D9B0E945000EDCF9FEFAFEF9A9566
:10006000F1F7AA95D9F708950E942D00BB27BC2F60
:100070005B0F55B9DFCF0E942D00BB27BC2F5B1B48
:1000800055B9D8CF0E942D00BB27BC2F6B0F68B984
:10009000D1CF0E942D00BB27BC2F6B1B68B9CACFE4
:0C00A0000E942D00752F760F7BB9C4CF95
:00000001FF
