:020000020000FC
:100000000FEF0DBF18E01EBF80E88093610084E011
:10001000809361002FE037E24FE134B927B94AB944
:1000200028E130E340E225B938B94BB950E060E04F
:1000300070E0C1E01C9B0E9431001B9B0E943800B5
:10004000349B0E943F00359B0E9446004D9B0E94BE
:100050004D00F0CF9FEFAFEF9A95F1F7AA95D9F742
:1000600008950E942A00BB27BC2F5B0F55B9E2CF31
:100070000E942A00BB27BC2F5B1B55B9DBCF0E9417
:100080002A00BB27BC2F6B0F68B9D4CF0E942A006F
:10009000BB27BC2F6B1B68B9CDCF0E942A00752FE0
:0600A000760F7BB9C7CF0B
:00000001FF
